:100000000C9434000C9446000C9446000C9446006A
:100010000C9446000C9446000C9446000C94A200EC
:100020000C9446000C9446000C9446000C94460038
:100030000C9446000C9446000C946A000C94460004
:100040000C9446000C9446000C9446000C94460018
:100050000C9446000C9446000C9446000C94460008
:100060000C9446000C94460011241FBECFEFD8E03C
:10007000DEBFCDBF21E0A0E0B1E001C01D92A53000
:10008000B207E1F70E9488000C94F9000C9400007C
:1000900080EE84B980E285B99FEF9AB991E09BB96F
:1000A0009DE497BD92EC94BD95E895BD92E0909348
:1000B0006E001092B30021E82093B0002CE0209352
:1000C000B1009093700080937C0086E880937A0062
:1000D000789408951F920F920FB60F9211248F9368
:1000E000809104018F5F8093040180910401843624
:1000F00049F48BB1811103C081E08BB901C01BB8F9
:10010000109204018F910F900FBE0F901F901895C1
:100110000E944800FFCFEAE7F0E08081806480839E
:1001200080917A0086FDFCCF8091790090E0A0E07C
:10013000B0E08093000190930101A0930201B0937D
:10014000030108951F920F920FB60F9211242F935F
:100150003F934F935F936F937F938F939F93AF934F
:10016000BF93EF93FF930E948B0060910001709109
:10017000010180910201909103012FEF33E040E0F3
:1001800050E00E94D70021952093B300FF91EF919A
:10019000BF91AF919F918F917F916F915F914F919F
:1001A0003F912F910F900FBE0F901F901895A1E2D5
:1001B0001A2EAA1BBB1BFD010DC0AA1FBB1FEE1FE1
:1001C000FF1FA217B307E407F50720F0A21BB30B2C
:1001D000E40BF50B661F771F881F991F1A9469F7A8
:1001E00060957095809590959B01AC01BD01CF0104
:0601F0000895F894FFCF12
:00000001FF
