:100000000C9434000C9446000C9446000C9446006A
:100010000C9446000C9446000C9446000C949700F7
:100020000C9446000C9446000C9446000C94460038
:100030000C9446000C9446000C9468000C94460006
:100040000C9446000C9446000C9446000C94460018
:100050000C9446000C9446000C9446000C94460008
:100060000C9446000C94460011241FBECFEFD8E03C
:10007000DEBFCDBF21E0A0E0B1E001C01D92A23003
:10008000B207E1F70E9486000C94BF000C940000B8
:100090008FEF84B985B98AB98BB917B818B88DE4D0
:1000A00087BD82EC84BD85E885BD82E080936E00CB
:1000B00093E89093B00095E09093B1008093700026
:1000C00080E280937C0086E880937A00789408959B
:1000D0001F920F920FB60F9211248F9380910101FE
:1000E0008F5F8093010180910101843649F48BB1C7
:1000F000811103C081E08BB901C01BB810920101CE
:100100008F910F900FBE0F901F9018950E9448007E
:10011000FFCFEAE7F0E080818064808380917A00FD
:1001200086FDFCCF809179008093000108951F9295
:100130000F920FB60F9211242F933F934F935F931B
:100140006F937F938F939F93AF93BF93EF93FF939F
:100150000E948900809100018093B300FF91EF918C
:10016000BF91AF919F918F917F916F915F914F91CF
:100170003F912F910F900FBE0F901F901895F894FC
:02018000FFCFAF
:00000001FF
