:100000000C9434000C9446000C9446000C9446006A
:100010000C9446000C9446000C9446000C94790015
:100020000C9446000C9446000C9446000C94460038
:100030000C9446000C9446000C945B000C94460013
:100040000C9446000C9446000C9446000C94460018
:100050000C9446000C9446000C9446000C94460008
:100060000C9446000C94460011241FBECFEFD8E03C
:10007000DEBFCDBF21E0A0E0B1E001C01D92A53000
:10008000B207E1F70E94AF000C94EE000C94000060
:1000900080EE84B980E285B98FEF8AB981E08BB9AF
:1000A0008DE487BD82EC84BD85E885BD82E08093C8
:1000B0006E00789408951F920F920FB60F9211243C
:1000C0008F93809104018F5F8093040180910401DC
:1000D000843649F48BB1811103C081E08BB901C032
:1000E0001BB8109204018F910F900FBE0F901F90BC
:1000F00018951F920F920FB60F9211242F933F93D2
:100100004F935F936F937F938F939F93AF93BF931F
:10011000EF93FF9320910001309101014091020182
:1001200050910301AFEFB0E00E94D40024E630E02C
:1001300040E050E00E94B2002093B300FF91EF91A5
:10014000BF91AF919F918F917F916F915F914F91EF
:100150003F912F910F900FBE0F901F9018950E9406
:100160004800FFCFA1E21A2EAA1BBB1BFD010DC048
:10017000AA1FBB1FEE1FFF1FA217B307E407F50757
:1001800020F0A21BB30BE40BF50B661F771F881F33
:10019000991F1A9469F760957095809590959B01C9
:1001A000AC01BD01CF0108950E94DF00A59F900D15
:1001B000B49F900DA49F800D911D11240895A29FBE
:1001C000B001B39FC001A39F700D811D1124911D2B
:1001D000B29F700D811D1124911D0895F894FFCFD9
:00000001FF
